{
  "abi": [
    {
      "inputs": [],
      "stateMutability": "nonpayable",
      "type": "constructor"
    },
    {
      "inputs": [
        {
          "internalType": "address",
          "name": "_caller",
          "type": "address"
        }
      ],
      "name": "InvalidCaller",
      "type": "error"
    },
    {
      "anonymous": false,
      "inputs": [
        {
          "indexed": true,
          "internalType": "address",
          "name": "_sender",
          "type": "address"
        },
        {
          "indexed": false,
          "internalType": "bytes32",
          "name": "_hash",
          "type": "bytes32"
        },
        {
          "indexed": false,
          "internalType": "uint256",
          "name": "_timeStored",
          "type": "uint256"
        }
      ],
      "name": "StoredHash",
      "type": "event"
    },
    {
      "inputs": [
        {
          "internalType": "bytes32",
          "name": "_hash",
          "type": "bytes32"
        }
      ],
      "name": "storeHash",
      "outputs": [],
      "stateMutability": "nonpayable",
      "type": "function"
    }
  ],
  "bytecode": {
    "object": "0x608060405234801561001057600080fd5b50600080546001600160a01b0319163317905560f9806100316000396000f3fe6080604052348015600f57600080fd5b506004361060285760003560e01c80637fe8888514602d575b600080fd5b603c603836600460ab565b603e565b005b6000546001600160a01b03163314606e5760405163065ece9760e51b815233600482015260240160405180910390fd5b6040805182815242602082015233917ff0b45fda04b818cfa99bcee6a613c2a04fc0432a89bc2dc7c2fe6863cf4eca32910160405180910390a250565b60006020828403121560bc57600080fd5b503591905056fea2646970667358221220ad12c256d668258f3c48c3c424d2d10f80286b4b026e604ad6ace604c0ee332164736f6c63430008150033",
    "linkReferences": {}
  },
  "methodIdentifiers": {
    "storeHash(bytes32)": "7fe88885"
  },
  "id": 23
}